:020000040000FA
:06000000CFEF19F0120021
:020006001200E6
:06000800B4EF18F0120035
:02000E00B6003A
:04001000C800000024
:03001400000000E9
:0600180005EF19F01200D3
:02001E000400DC
:10002000D9330000EA0000000F000000D6330000C2
:100030001901000003000000140000001601000078
:10004000030000000E000000F900000006000000A0
:10005000C70ED56E410EC26EC16A0101006B016B05
:10006000026B036B046B056B066B076B086B096B0C
:100070000A6B0B6B0001F86B1200D9CFE6FFE1CFE2
:10008000D9FF1F0EE126FD0EDBCF24F0FE0EDBCFE5
:1000900025F0020E241801E1255010E0010E24186D
:1000A00001E1255007E024500CE125500AE1C29AF5
:1000B000C29806D0C29AC298C28603D0C29AC28899
:1000C000C2961D0EDB6A1E0EDB6A1D0EDBCF00F032
:1000D0001E0EDBCF01F000010150F519E8AE02D091
:1000E000F53504D0F451005CF551015801E3CDD051
:1000F000C284C2B4FED7C4CF25F073EC0EF0040E58
:1001000023C0DBFF050E24C0DBFF060E25C0DBFF8E
:10011000070E26C0DBFF040EDBCF04F0050EDBCF9D
:1001200005F0060EDBCF06F0070EDBCF07F0286ADE
:10013000296AA00E2A6E400E2B6E04C023F005C063
:1001400024F006C025F007C026F083EC0FF023C092
:1001500000F024C001F025C002F026C003F0286A98
:10016000296A800E2A6E430E2B6E30EC0FF0040EBF
:1001700023C0DBFF050E24C0DBFF060E25C0DBFF1E
:10018000070E26C0DBFF006A016A800E026E3F0E7A
:10019000036E040EDBCF0CF0050EDBCF0DF0060E68
:1001A000DBCF0EF0070EDBCF0FF0F0C028F0F1C070
:1001B00029F0F2C02AF0F3C02BF00CC023F00DC0E0
:1001C00024F00EC025F00FC026F099EC0EF023C0ED
:1001D00008F024C009F025C00AF026C00BF0ECC0DE
:1001E00028F0EDC029F0EEC02AF0EFC02BF030EC83
:1001F0000FF023C004F024C005F025C006F026C08F
:1002000007F023C028F024C029F025C02AF026C01A
:100210002BF000C023F001C024F002C025F003C081
:1002200026F030EC0FF023C0DEFF24C0DEFF25C037
:10023000DEFF26C0DDFFDD52DD52D950080F006E13
:10024000DACF01F0040E246E256A1D0EDBCF29F0F3
:100250001E0EDBCF2AF030EC10F000502224E96EA5
:1002600001502320EA6EDFCFEEFF010EDBCFEEFF61
:10027000020EDBCFEEFF030EDBCFEEFF1D0EDB2AFF
:100280001E0E01E222D7DB2A20D71C0EDB6A1C0ED1
:10029000DB5001E00CD1010EF36E1C0EF3CFDBFF3F
:1002A0001D0EDB6A1E0EDB6A1D0EDBCF00F01E0E7C
:1002B000DBCF01F0F4C002F0F5C003F00206000E3F
:1002C000035A01500318E8AE02D0033404D00250A0
:1002D000005C03500158DBE2D950080F046EDACFFE
:1002E00005F0040E246E256A1D0EDBCF29F01E0ECC
:1002F000DBCF2AF030EC10F004502224E96E0550D8
:100300002320EA6EEECF00F0EECF01F0EECF02F048
:10031000EFCF03F0D950080F0A6EDACF0BF0010EC1
:10032000E76E1D0EDBCF0CF01E0EDBCF0DF0E7509D
:100330000C26000E0D22D8900C360D36D8900C36B7
:100340000D360A500C24E96EDA500D20EA6EEECF1D
:1003500006F0EECF07F0EECF08F0EFCF09F006C0C1
:1003600028F007C029F008C02AF009C02BF000C00F
:1003700023F001C024F002C025F003C026F08CEC6D
:1003800010F0010A01E08CD01C0EDB6AD950080F76
:10039000006EDACF01F0040E246E256A1D0EDBCF4D
:1003A00029F01E0EDBCF2AF030EC10F00050222492
:1003B000E96E01502320EA6EEECFDFFF010EEECF93
:1003C000DBFF020EEECFDBFF030EEECFDBFFD950DB
:1003D000080F066EDACF07F0010EE76E1D0EDBCFB9
:1003E00008F01E0EDBCF09F0E7500826000E0922A8
:1003F000D89008360936D8900836093606500824B1
:10040000E96EDA500920EA6EEECF02F0EECF03F08B
:10041000EECF04F0EFCF05F0D950080F006EDACF21
:1004200001F0040E246E256A1D0EDBCF29F01E0E8E
:10043000DBCF2AF030EC10F000502224E96E01509E
:100440002320EA6E02C0EEFF03C0EEFF04C0EEFF01
:1004500005C0EEFFD950080F006E010EE76E1D0EAD
:10046000DBCF02F01E0EDBCF03F0E7500226000EBA
:100470000322D89002360336D89002360336005055
:100480000224E96EDA500320EA6EDFCFEEFF010EA0
:10049000DBCFEEFF020EDBCFEEFF030EDBCFEEFF76
:1004A0001D0EDB2A1E0E01E2FFD6DB2AFDD6F4C0AC
:1004B00000F0F5C001F0020E296E2A6AF4C024F0A3
:1004C000F5C025F00AEC10F0205021100AE1D950B7
:1004D000080F006EDACF01F0F4C002F0F5C003F0AF
:1004E0000CD0D950080F006EDACF01F0F4C002F042
:1004F000F5C003F00206000E035A020E296E2A6AA6
:1005000002C024F003C025F00AEC10F024C002F071
:1005100025C003F0D89002360336D8900236033651
:1005200000500224E96E01500320EA6EEECFDFFF97
:10053000010EEECFDBFF020EEECFDBFF030EEECFA0
:10054000DBFFDECF22F0DECF23F0DECF24F0DDCFE5
:1005500025F0DD52DD521F0EE15C02E2E16AE55258
:10056000E16EE552E7CFD9FF1200D9CFE6FFE1CF28
:10057000D9FF330EE126FD0EDBCF24F0FE0EDBCFDC
:1005800025F0020E241801E1255010E0010E241878
:1005900001E1255007E024500CE125500AE1C29A00
:1005A000C29806D0C29AC298C28603D0C29AC288A4
:1005B000C296310EDB6A320EDB6A310EDBCF00F001
:1005C000320EDBCF01F000010150F719E8AE02D086
:1005D000F73504D0F651005CF751015801E3B5D06E
:1005E000C284C2B4FED7C4CF25F073EC0EF023C092
:1005F00004F024C005F025C006F026C007F0286AE4
:10060000296AA00E2A6E400E2B6E83EC0FF023C0D9
:1006100000F024C001F025C002F026C003F0286AD3
:10062000296A800E2A6E430E2B6E30EC0FF0040EFA
:1006300023C0DBFF050E24C0DBFF060E25C0DBFF59
:10064000070E26C0DBFF006A016A800E026E3F0EB5
:10065000036E040EDBCF0CF0050EDBCF0DF0060EA3
:10066000DBCF0EF0070EDBCF0FF0F0C028F0F1C0AB
:1006700029F0F2C02AF0F3C02BF00CC023F00DC01B
:1006800024F00EC025F00FC026F099EC0EF023C028
:1006900008F024C009F025C00AF026C00BF0ECC019
:1006A00028F0EDC029F0EEC02AF0EFC02BF030ECBE
:1006B0000FF023C004F024C005F025C006F026C0CA
:1006C00007F023C028F024C029F025C02AF026C056
:1006D0002BF000C023F001C024F002C025F003C0BD
:1006E00026F030EC0FF023C0DEFF24C0DEFF25C073
:1006F000DEFF26C0DDFFDD52DD52D950080F006E4F
:10070000DACF01F0040E246E256A310EDBCF29F01A
:10071000320EDBCF2AF030EC10F000502224E96ECC
:1007200001502320EA6EDFCFEEFF010EDBCFEEFF9C
:10073000020EDBCFEEFF030EDBCFEEFF310EDB2A26
:10074000320E01E23AD7DB2A38D7300EDB6A300EA0
:10075000DB5001E00CD1010EF36E300EF3CFDBFF66
:10076000310EDB6A320EDB6A310EDBCF00F0320E67
:10077000DBCF01F0F6C002F0F7C003F00206000E76
:10078000035A01500318E8AE02D0033404D00250DB
:10079000005C03500158DBE2D950080F046EDACF39
:1007A00005F0040E246E256A310EDBCF29F0320EDF
:1007B000DBCF2AF030EC10F004502224E96E055013
:1007C0002320EA6EEECF00F0EECF01F0EECF02F084
:1007D000EFCF03F0D950080F0A6EDACF0BF0010EFD
:1007E000E76E310EDBCF0CF0320EDBCF0DF0E750B1
:1007F0000C26000E0D22D8900C360D36D8900C36F3
:100800000D360A500C24E96EDA500D20EA6EEECF58
:1008100006F0EECF07F0EECF08F0EFCF09F006C0FC
:1008200028F007C029F008C02AF009C02BF000C04A
:1008300023F001C024F002C025F003C026F08CECA8
:1008400010F0010A01E08CD0300EDB6AD950080F9D
:10085000006EDACF01F0040E246E256A310EDBCF74
:1008600029F0320EDBCF2AF030EC10F000502224B9
:10087000E96E01502320EA6EEECFDFFF010EEECFCE
:10088000DBFF020EEECFDBFF030EEECFDBFFD95016
:10089000080F066EDACF07F0010EE76E310EDBCFE0
:1008A00008F0320EDBCF09F0E7500826000E0922CF
:1008B000D89008360936D8900836093606500824EC
:1008C000E96EDA500920EA6EEECF02F0EECF03F0C7
:1008D000EECF04F0EFCF05F0D950080F006EDACF5D
:1008E00001F0040E246E256A310EDBCF29F0320EA2
:1008F000DBCF2AF030EC10F000502224E96E0150DA
:100900002320EA6E02C0EEFF03C0EEFF04C0EEFF3C
:1009100005C0EEFFD950080F006E010EE76E310ED4
:10092000DBCF02F0320EDBCF03F0E7500226000EE1
:100930000322D89002360336D89002360336005090
:100940000224E96EDA500320EA6EDFCFEEFF010EDB
:10095000DBCFEEFF020EDBCFEEFF030EDBCFEEFFB1
:10096000310EDB2A320E01E2FFD6DB2AFDD6F6C0BD
:1009700000F0F7C001F0020E296E2A6AF6C024F0DA
:10098000F7C025F00AEC10F0205021100AE1D950F0
:10099000080F006EDACF01F0F6C002F0F7C003F0E6
:1009A0000CD0D950080F006EDACF01F0F6C002F07B
:1009B000F7C003F00206000E035A020E296E2A6ADF
:1009C00002C024F003C025F00AEC10F024C002F0AD
:1009D00025C003F0D89002360336D890023603368D
:1009E00000500224E96E01500320EA6EEECFDFFFD3
:1009F000010EEECFDBFF020EEECFDBFF030EEECFDC
:100A0000DBFFDECF22F0DECF23F0DECF24F0DDCF20
:100A100025F0DD52DD52330EE15C02E2E16AE5527F
:100A2000E16EE552E7CFD9FF1200F29EF29CD08E24
:100A3000F28AF294F194F28EF28C1200C70ED56E07
:100A40001200F294000EE66EE66A3DEC00F0E5520C
:100A5000E55222C000F123C001F124C002F125C0FB
:100A600003F1286A296A300E2A6E410E2B6E22C0CD
:100A700023F001C124F002C125F003C126F08CEC63
:100A800010F0010A03E00001F82B02D00001F86B1E
:100A9000030EF85D0EE3F86BF29A000EE66EE66A5E
:100AA000E66EE66A2CEC16F0E552E552E552E552A8
:040AB000010C000C29
:0C0AB4000001C56BC66BC76B7E0EDB6FCC
:100AC000010EDC6F790EDD6FFE0EDE6FDF6B7E0ECA
:100AD000E06F010EE16F6F0EE26FFE0EE36FE46BED
:100AE0007E0EE56F010EE66F660EE76FFE0EE86F95
:100AF000E96B240EAC6E900EAB6E400EAF6E948E12
:100B0000949C1200F29EF29CD08E9D8A9F8AF28A5B
:100B1000F294F194F28EF28C1200D9CFE6FFE1CF7D
:100B2000D9FF9EA8FED7FE0EDB50AD6EE552E7CF93
:100B3000D9FF1200D9CFE6FFE1CFD9FFFD0EDBCF01
:100B4000E9FFFE0EDBCFEAFFEF5010E0FD0EDBCF3A
:100B5000E9FFFE0EDBCFEAFFEF50E66EDEDFE55287
:100B6000FD0EDB2AFE0EEAE3DB2AE8D7E552E7CFEB
:100B7000D9FF1200D9CFE6FFE1CFD9FFFE0EDB503F
:100B800004E1E00EE66E000E06D0FE0EDB0407E187
:100B9000DB0EE66E000EE66ECDDFE552E552E55265
:100BA000E7CFD9FF1200D9CFE6FFE1CFD9FFE65258
:100BB000AE50DF6E0001FD5122E0DFCFE6FFF9C04D
:100BC000E6FFFAC0E6FFEFDAE552E552E552000132
:100BD000FE5106E1FE0EDF5C24E1010EFE6F21D026
:100BE000FE051FE1FD6BFE6B92DA000904E00001D7
:100BF000010EDA6F02D00001DA6B9D9A12D07E0EE0
:100C0000DF5C0EE1DFCFE6FFF9C0E6FFFAC0E6FFEA
:100C1000CADAE552E552E5520001010EFD6F01D03E
:100C2000FD6BABA202D0AB98AB88E552E552E7CFA3
:100C3000D9FF1200D9CFE6FFE1CFD9FF050EE1269B
:100C4000FD0EDBCF24F0FE0EDBCF25F0020E24C01C
:100C5000DBFF030E25C0DBFF040EDB6A020EDBCFD9
:100C6000E6FF030EDBCFE6FFA5DBE552E5527E088B
:100C700001E0AAD0020EDBCFE6FF030EDBCFE6FFDA
:100C800099DBE552E552DF6EDFCF00F00F0EE76E25
:100C90000018E8AE02D0003403D0E750D8800054EA
:100CA00001E292D0FBC0E9FFFCC0EAFFDFCFEFFF1B
:100CB000020EDBCFE6FF030EDBCFE6FF7BDBE55268
:100CC000E552E66EFBC0E9FFFCC0EAFFEE52E552DA
:100CD000E750EF6E040EDB2ADBCF00F0DF50E76E4B
:100CE0000018E8AE02D0E73402D0E750005C23E2FF
:100CF000020EDBCFE6FF030EDBCFE6FF5BDBE55248
:100D0000E552E66EFBC0E9FFFCC0EAFF020EE926F1
:100D1000000EEA22E9CF00F0EACF01F0040EDB0476
:100D2000026E036A02BE036800500224E96E01509D
:100D30000320EA6ECCD7020EDBCFE6FF030EDBCF3B
:100D4000E6FF38DBE552E552FE083EE1020EDBCF5E
:100D5000E6FF030EDBCFE6FF2DDBE552E552E66E44
:100D6000FBC0E9FFFCC0EAFF110EE926000EEA22F3
:100D7000E552E750EF6EFBC0E9FFFCC0EAFF110E41
:100D8000EB50E66EEF50E66EEE52E9CF00F0EACFA0
:100D900001F0E9CFE6FFEACFE6FF25D8E552E552BC
:100DA000E552E552000910E0020EDBCFE6FF030E2C
:100DB000DBCFE6FF4BDBE552E552F3CF00F0F4CF9B
:100DC00001F0F350F41002E1000E01D0010E006EAC
:100DD000050EE15C02E2E16AE552E16E0050E55287
:100DE000E7CFD9FF1200D9CFE6FFE1CFD9FF020E3E
:100DF000E126DE6ADD6AFC0EDBCFE6FFFD0EDBCF0F
:100E0000E6FFFE0EDBCFE6FF1FD8E552E552E552C6
:100E1000DE6EDD6AFB0EDB50006E016AE850DF1803
:100E200006E10150DE52DD1802E1010E01D0000E94
:100E3000006E020EE15C02E2E16AE552E16E0050F2
:100E4000E552E7CFD9FF1200D9CFE6FFE1CFD9FFB6
:100E5000030EE126DE6ADD6A020EDB6ADBCF00F0FC
:100E6000FC0EDB50E76E0018E8AE02D0E73402D08B
:100E7000E750005C1EE2020EDBCF02F0036A02BE06
:100E80000368FD0EDB500224E96EFE0EDB500320EA
:100E9000EA6EEFCF00F0016A00BE0168D9CFE9FF2A
:100EA000DACFEAFF0050EE260150ED22020EDB2AD7
:100EB000D5D7FF0EDE16DD6ADECF00F0DDCF01F004
:100EC000D8800056000E015600C0DEFF01C0DDFFD5
:100ED000DF50006E030EE15C02E2E16AE552E16E72
:100EE0000050E552E7CFD9FF1200D9CFE6FFE1CF9E
:100EF000D9FF030EE126DE6ADD6A020EDB6A7E0E92
:100F0000E66EF90EDBCFE6FFFA0EDBCFE6FF4BD93C
:100F1000E552E552E552FC0EDBCFE6FFF90EDBCFE2
:100F2000E6FFFA0EDBCFE6FF3ED9E552E552E55289
:100F3000FB0EDBCFE6FFF90EDBCFE6FFFA0EDBCFD1
:100F4000E6FF31D9E552E552E552020EDBCF00F063
:100F5000FC0EDB50E76E0018E8AE02D0E73402D09A
:100F6000E750005C1DE2020EDBCF00F0016A00BE1C
:100F70000168FD0EDB500024E96EFE0EDB500120FF
:100F8000EA6EEF50E66EF90EDBCFE6FFFA0EDBCF2E
:100F9000E6FF09D9E552E552E552020EDB2AD5D724
:100FA000FE0EE66EF90EDBCFE6FFFA0EDBCFE6FFB4
:100FB000FAD8E552E552E552FC0EDBCFE6FFFD0E16
:100FC000DBCFE6FFFE0EDBCFE6FF3EDFE552E5526C
:100FD000E552DE6EDD6ADFCFE6FFF90EDBCFE6FF1E
:100FE000FA0EDBCFE6FFDFD8E552E552E552030EFD
:100FF000E15C02E2E16AE552E16EE552E7CFD9FF3A
:101000001200D9CFE6FFE1CFD9FFE652DF6AF9C07F
:10101000E6FFFAC0E6FF0EDEE552E55200095BE0AE
:10102000FBC0E9FFFCC0EAFF010EEB500A081EE11D
:10103000FBC0E9FFFCC0EAFF020EE926000EEA222F
:10104000010EE926000EEA22EF50E66EE66AFBC0CA
:10105000E9FFFCC0EAFF020EEB50E66EE66A6EECBA
:1010600015F0E552E552E552E55243D0FBC0E9FFE9
:10107000FCC0EAFF010EEB500B0803E1010EDF6E2E
:1010800038D0FBC0E9FFFCC0EAFF010EEB500F08AF
:101090000EE17D0EE66EE66AE66EE66A6EEC15F02F
:1010A000E552E552E552E5520001DA6B22D0FBC071
:1010B000E9FFFCC0EAFF010EEB500C081AE1FBC08F
:1010C000E9FFFCC0EAFF020EEB50010812E0E50E5A
:1010D000E66E000E11D0F9C0E9FFFAC0EAFF0F0E6C
:1010E000EB50E66E100EE926000EEA22E552E750BC
:1010F000EF6EDB0EE66E000EE66E1CDDE552E5528D
:101100009D8ADF50E552E552E7CFD9FF1200D9CFD3
:10111000E6FFE1CFD9FF020EE126F9C0E9FFFAC0F0
:10112000EAFF100EEB50030F006E256E0F0E2A6EB5
:10113000F0EC0FF02150DF6EF9C0E9FFFAC0EAFFD2
:10114000F9C000F0FAC001F0DFCF02F0036A02BE7E
:10115000036800500224E96E01500320EA6E010E7C
:10116000EFCFDBFFDB500F0802E1010E01D0000ED4
:10117000006E020EE15C02E2E16AE552E16E0050AF
:10118000E552E7CFD9FF1200F9C0E9FFFAC0EAFF44
:101190000F0EEB50E66E100EE926000EEA22E55225
:1011A000E750EF6E1200D9CFE6FFE1CFD9FFFD0E79
:1011B000DBCFE9FFFE0EDBCFEAFF110EE926000EC2
:1011C000EA22EF505CE0FD0EDBCFE9FFFE0EDBCF45
:1011D000EAFF0F0EE926000EEA22EF28006E256EC8
:1011E0000F0E2A6EF0EC0FF02150E66EFD0EDBCFF5
:1011F000E9FFFE0EDBCFEAFF0F0EE926000EEA2222
:10120000E552E750EF6EFD0EDBCFE9FFFE0EDBCFC0
:10121000EAFFE9CF00F0EACF01F0FD0EDBCFE9FFF6
:10122000FE0EDBCFEAFF0F0EE926000EEA22EFCF1B
:1012300002F0036A02BE036800500224E96E015006
:101240000320EA6EFC0EDBCFEFFFFD0EDBCFE9FFE4
:10125000FE0EDBCFEAFF0F0EE926000EEA22EF506A
:10126000E66EFD0EDBCFE9FFFE0EDBCFEAFF100ED0
:10127000E926000EEA22E552E750EF6E97D0FD0E08
:10128000DBCFE6FFFE0EDBCFE6FF06D9E552E552E7
:10129000F4CF01F0F350F41047E0FD0EDBCFE9FF8F
:1012A000FE0EDBCFEAFF110EE926000EEA22010E48
:1012B000EF6EFD0EDBCFE9FFFE0EDBCFEAFF0F0E78
:1012C000E926000EEA22EF28006E256E0F0E2A6E28
:1012D000F0EC0FF02150E66EFD0EDBCFE9FFFE0EC5
:1012E000DBCFEAFF0F0EE926000EEA22E552E750B7
:1012F000EF6EFD0EDBCFE9FFFE0EDBCFEAFFE9CF9D
:1013000000F0EACF01F0FD0EDBCFE9FFFE0EDBCFF0
:10131000EAFF0F0EE926000EEA22EFCF02F0036A81
:1013200002AE3BD0036839D0FD0EDBCFE9FFFE0EE5
:10133000DBCFEAFF0F0EE926000EEA22EF28006E4F
:10134000256E0F0E2A6EF0EC0FF02150E66EFD0EAA
:10135000DBCFE9FFFE0EDBCFEAFF0F0EE926000E22
:10136000EA22E552E750EF6EFD0EDBCFE9FFFE0EFD
:10137000DBCFEAFFE9CF00F0EACF01F0FD0EDBCFD3
:10138000E9FFFE0EDBCFEAFF0F0EE926000EEA2290
:10139000EFCF02F0036A02BE036800500224E96E38
:1013A00001500320EA6EFC0EDBCFEFFFE552E7CFE2
:1013B000D9FF1200D9CFE6FFE1CFD9FFE652FD0EEB
:1013C000DBCFE9FFFE0EDBCFEAFF100EE926000EB1
:1013D000EA22EF28006E256E0F0E2A6EF0EC0FF059
:1013E0002150E66EFD0EDBCFE9FFFE0EDBCFEAFFFC
:1013F000100EE926000EEA22E552E750EF6EFD0ED0
:10140000DBCFE9FFFE0EDBCFEAFFE9CF00F0EACF4A
:1014100001F0FD0EDBCFE9FFFE0EDBCFEAFF100E81
:10142000E926000EEA22EFCF02F0036A02BE03684B
:1014300000500224E96E01500320EA6EEFCFDFFF77
:10144000DF50E552E552E7CFD9FF1200D9CFE6FFD2
:10145000E1CFD9FFFD0EDBCFE9FFFE0EDBCFEAFFC8
:10146000100EE926000EEA22EFCF00F0FD0EDBCFD2
:10147000E9FFFE0EDBCFEAFF0F0EE926000EEA229F
:10148000EF50005C03E1010EF36E01D0F36AF46AE1
:10149000E552E7CFD9FF1200D9CFE6FFE1CFD9FF60
:1014A000FD0EDBCFE9FFFE0EDBCFEAFF0F0EE926D4
:1014B000000EEA22EF28016E256E0F0E2A6EF0EC68
:1014C0000FF021C000F0FD0EDBCFE9FFFE0EDBCFF9
:1014D000EAFF100EE926000EEA22EF50215C03E13C
:1014E000010EF36E01D0F36AF46AE552E7CFD9FF3B
:0214F0001200E8
:0E14F200D9CFE6FFE1CFD9FF0A0EE126060EA4
:10150000DB6A070EDB6AC80EF36E080EF3CFDBFF53
:10151000420EF36E090EF3CFDBFFFB0EDBCF00F0C4
:10152000FC0EDBCF01F0FD0EDBCF02F0FE0EDBCFB9
:1015300003F000C028F001C029F002C02AF003C067
:101540002BF088C023F089C024F08AC025F08BC01E
:1015500026F09AEC0EF023C088F024C089F025C054
:101560008AF026C08BF0FB0EDBCF00F0FC0EDBCF49
:1015700001F0FD0EDBCF02F0FE0EDBCF03F080C0EA
:1015800028F081C029F082C02AF083C02BF000C06F
:1015900023F001C024F002C025F003C026F099EC2E
:1015A0000EF023C090F024C091F025C092F026C028
:1015B00093F0A0C023F0A1C024F0A2C025F0A3C0E6
:1015C00026F0FB0EDBCF28F0FC0EDBCF29F0FD0E62
:1015D000DBCF2AF0FE0EDBCF2BF083EC0FF023C025
:1015E00004F024C005F025C006F026C007F088C02E
:1015F00028F089C029F08AC02AF08BC02BF098C04F
:1016000023F099C024F09AC025F09BC026F083EC0B
:101610000FF023C008F024C009F025C00AF026C04E
:101620000BF023C028F024C029F025C02AF026C0E2
:101630002BF004C023F005C024F006C025F007C03D
:1016400026F09AEC0EF023C000F024C001F025C073
:1016500002F026C003F090C028F091C029F092C09B
:101660002AF093C02BF09CC023F09DC024F09EC0B4
:1016700025F09FC026F083EC0FF023C00CF024C0AF
:101680000DF025C00EF026C00FF023C028F024C0B6
:1016900029F025C02AF026C02BF000C023F001C09D
:1016A00024F002C025F003C026F09AEC0EF0020EE2
:1016B00023C0DBFF030E24C0DBFF040E25C0DBFFCD
:1016C000050E26C0DBFF020EDBCF00F0030EDBCFE2
:1016D00001F0040EDBCF02F0050EDBCF03F0060EA7
:1016E000DBCF04F0070EDBCF05F0080EDBCF06F0F2
:1016F000090EDBCF07F004C028F005C029F006C0B2
:101700002AF007C02BF000C023F001C024F002C073
:1017100025F003C026F08CEC10F0010A12E1D9503C
:10172000060FE96EDACFEAFF020EEECFDBFF030E03
:10173000EECFDBFF040EEECFDBFF050EEECFDBFFBF
:101740005CD0020EDBCF00F0030EDBCF01F0040E05
:10175000DBCF02F0050EDBCF03F0236A246A800E94
:10176000256EBF0E266E060EDBCF28F0070EDBCFF0
:1017700029F0080EDBCF2AF0090EDBCF2BF083EC2B
:101780000FF023C004F024C005F025C006F026C0E9
:1017900007F023C028F024C029F025C02AF026C075
:1017A0002BF000C023F001C024F002C025F003C0DC
:1017B00026F095EC10F0010A20E1236A246A800EDD
:1017C000256EBF0E266E060EDBCF28F0070EDBCF90
:1017D00029F0080EDBCF2AF0090EDBCF2BF083ECCB
:1017E0000FF0020E23C0DBFF030E24C0DBFF040E4C
:1017F00025C0DBFF050E26C0DBFF006A016AFA0E7A
:10180000026E420E036ED950020FE96EDACFEAFF84
:10181000EECF23F0EECF24F0EECF25F0EFCF26F081
:1018200000C028F001C029F002C02AF003C02BF04C
:101830009AEC0EF026C0EDFF25C0EDFF24C0EDFFB1
:1018400023C0EFFF020EDBCF23F0030EDBCF24F02B
:10185000040EDBCF25F0050EDBCF26F05DEC10F09B
:1018600024C0DEFF25C0DDFFFB0EDBCF80F0FC0EC9
:10187000DBCF81F0FD0EDBCF82F0FE0EDBCF83F0FD
:10188000DECF00F0DDCF01F000C0F3FF01C0F4FFB8
:101890000A0EE15C02E2E16AE552E16EE552E7CF51
:1018A000D9FF1200D9CFE6FFE1CFD9FF070EE1261D
:1018B000640EF36E020EF3CFDBFFFD0EDBCF24F0E0
:1018C000FE0EDBCF25F086EC0EF023C000F024C026
:1018D00001F025C002F026C003F023C028F024C088
:1018E00029F025C02AF026C02BF08CC023F08DC033
:1018F00024F08EC025F08FC026F09AEC0EF023C0A5
:101900008CF024C08DF025C08EF026C08FF0FD0E27
:10191000DBCF24F0FE0EDBCF25F086EC0EF023C0EB
:1019200000F024C001F025C002F026C003F084C0FE
:1019300028F085C029F086C02AF087C02BF099ECEA
:101940000EF023C094F024C095F025C096F026C078
:1019500097F00C6A0D6A160E0E6E430E0F6EACC039
:1019600028F0ADC029F0AEC02AF0AFC02BF00CC0FB
:1019700023F00DC024F00EC025F0266E83EC0FF08E
:1019800023C008F024C009F025C00AF026C00BF0DF
:10199000FD0EDBCF24F0FE0EDBCF25F086EC0EF043
:1019A00023C010F024C011F025C012F026C013F09F
:1019B00023C028F024C029F025C02AF026C02BF02F
:1019C00008C023F009C024F00AC025F00BC026F09F
:1019D00083EC0FF023C004F024C005F025C006F00E
:1019E00026C007F08CC028F08DC029F08EC02AF0E8
:1019F0008FC02BF0A4C023F0A5C024F0A6C025F012
:101A0000A7C026F083EC0FF023C014F024C015F01B
:101A100025C016F026C017F023C028F024C029F0F6
:101A200025C02AF026C02BF004C023F005C024F006
:101A300006C025F007C026F09AEC0EF023C000F097
:101A400024C001F025C002F026C003F094C028F0A5
:101A500095C029F096C02AF097C02BF0A8C023F0BB
:101A6000A9C024F0AAC025F0ABC026F083EC0FF08B
:101A700023C018F024C019F025C01AF026C01BF0AE
:101A800023C028F024C029F025C02AF026C02BF05E
:101A900000C023F001C024F002C025F003C026F0EE
:101AA0009AEC0EF0030E23C0DBFF040E24C0DBFF14
:101AB000050E25C0DBFF060E26C0DBFF030EDBCFC5
:101AC00000F0040EDBCF01F0050EDBCF02F0060EB6
:101AD000DBCF03F0020EDBCF08F008C025F075EC79
:101AE0000EF023C004F024C005F025C006F026C087
:101AF00007F023C028F024C029F025C02AF026C012
:101B00002BF000C023F001C024F002C025F003C078
:101B100026F08CEC10F0010A04E1020EDBCF00F09D
:101B200036D0030EDBCF00F0040EDBCF01F0050E44
:101B3000DBCF02F0060EDBCF03F0020EDB50FF0D11
:101B4000F3CF08F0F3CF25F075EC0EF023C004F0CE
:101B500024C005F025C006F026C007F023C028F0F9
:101B600024C029F025C02AF026C02BF000C023F0A5
:101B700001C024F002C025F003C026F095EC10F05F
:101B8000010A15E1020EDB50FF0DF3CF00F000C09B
:101B900025F075EC0EF0030E23C0DBFF040E24C00D
:101BA000DBFF050E25C0DBFF060E26C0DBFF006A4B
:101BB000016AFA0E026E420E036ED950030FE96EEF
:101BC000DACFEAFFEECF23F0EECF24F0EECF25F010
:101BD000EFCF26F000C028F001C029F002C02AF0A3
:101BE00003C02BF09AEC0EF026C0EDFF25C0EDFFF0
:101BF00024C0EDFF23C0EFFF030EDBCF23F0040E64
:101C0000DBCF24F0050EDBCF25F0060EDBCF26F070
:101C10005DEC10F024C0DEFF25C0DDFFFD0EDBCF44
:101C200024F0FE0EDBCF25F086EC0EF023C084F00E
:101C300024C085F025C086F026C087F0DECF00F0F6
:101C4000DDCF01F000C0F3FF01C0F4FF070EE15C3F
:101C500002E2E16AE552E16EE552E7CFD9FF1200F8
:101C600000018C6B8D6B8E6B8F6B886B896B8A6BB5
:101C70008B6B806B816B826B836B846B856B866BEC
:101C8000876BCD0E986FCC0E996F9A6F3D0E9B6F40
:101C90009C6B9D6BA00E9E6F410E9F6FA06BA16B06
:101CA000C80EA26F420EA36FCD0EA46FCC0EA56F0F
:101CB0004C0EA66F3D0EA76FA86BA96B400EAA6FC6
:101CC000AB6FAC6BAD6B200EAE6F410EAF6FF40E11
:101CD000B06F010EB16FCD0EB26FCC0EB36FB46F9B
:061CE0003D0EB56F12007D
:0A1CE6001D9E05D01D9E25AE02D004
:101CF000256C1D8E25C01FF01E6A2F6A2E6A860E67
:101D0000206E216A0FEF11F01D9E08D01D9E25AE9A
:101D100005D0246C251EE86A25221D8E25C01FF0E3
:101D200024C01EF02F6A2E6A8E0E206E216A0FEFDD
:101D300011F02B7E1D6A4BEC11F063EC11F01DB617
:101D4000F3EF10F01DA20AD01DAA03D01DBEF3EFC1
:101D500010F01DA4FFEF10F0FCEF10F01DAA05D04D
:101D60001DACFFEF10F0FCEF10F01DA00AD01DA875
:101D700008D01DBE04D01DA402D008EF11F00CEF56
:101D800011F02E6A216A2B50265C2D6E10E323C0C1
:101D90002FF024C01EF025C01FF026C02CF028C054
:101DA00023F029C024F02AC025F01D3A09D028C00C
:101DB0002FF029C01EF02AC01FF02BC02CF02D6C74
:101DC0001D9E1DBC1D8E2CC020F01DB03BEF11F0E0
:101DD0001A0E2D603BEF11F0206A266A1DA408D070
:101DE000236C241E251E261EE86A24222522262274
:101DF0001DAC08D02F6C1E1E1F1E201EE86A1E225E
:101E00001F222022226A2D5207E026342532243256
:101E1000233222322D2EF9D723502F2624501E2272
:101E200025501F222650202222C02EF01D9E20AEBB
:101E30000BD02E6C2F1E1E1E1F1E201EE86A2F2286
:101E40001E221F2220221D8E20A006D0D8801F32E5
:101E50001E322F322E322C2A2CC020F00FEF11F020
:101E60001D6A4BEC11F063EC11F01DB6F3EF10F0AE
:101E70001DA205D01DBAF3EF10F0FAEF10F01DBA55
:101E800006EF11F01DA005D01DB8F3EF10F006EF1E
:101E900011F01DB8FAEF10F0216A7F0E2624206E93
:101EA000E86A21222B50205EE86A215A1A0E2C6E15
:101EB000266A2E6A2F6A1E6A1F6A2850235E2950DE
:101EC000245A2A50255A000E265A09E7285023265C
:101ED000295024222A502522000E262201D02E8AA3
:101EE000D8902336243625362636D8902E362F36EF
:101EF0001E361F362C2EE1D7255024102310D8A4CF
:101F00002E8A0FEF11F01D6A4BEC11F063EC11F00B
:101F10001DB6F3EF10F01DA205D01DB8F3EF10F0C1
:101F2000FAEF10F01DAA05D01DB0F3EF10F0FAEF94
:101F300010F01DB002D01DA802D006EF11F0216AEA
:101F40002B502624206EE86A21227E0E205EE86A4D
:101F5000215A2E6A2F6A1E6A1F6A2A502502F4CF60
:101F60001FF0F3CF1EF029502502F3502F26F45016
:101F70001E22000E1F222A502402F3502F26F45056
:101F80001E22000E1F2228502502F3502E26F45048
:101F90002F22000E1E221F2229502402F3502E262B
:101FA000F4502F22000E1E221F222A502302F3502B
:101FB0002E26F4502F22000E1E221F22285024020B
:101FC000F4502E26000E2F221E221F2229502302FB
:101FD000F4502E26000E2F221E221F220FEF11F08A
:101FE0001C6A2AAEF6EF0FF02A6C1C1E25AEFBEF22
:101FF0000FF0256C1C1EDDEC19F025BE05EF10F06E
:102000001CAE000C256C216C000C1CBE02EF10F005
:102010001D88FF0C1C6A2AAE13EF10F0296C2A1ED3
:10202000E86A2A221C1E25AE1BEF10F0246C251E28
:10203000E86A25221C1EA9EC19F025BE2BEF10F032
:102040001CAE000C246C251EE86A2522206C211E83
:10205000E86A2122000C1CBE22EF10F01D88FF0C44
:1020600025C02FF024C02EF024502902F4CF23F0F5
:10207000F3CF22F025502A02F4CF25F0F3CF24F03D
:102080002902F3502326F4502422E86A25222E50F8
:102090002A02F3502326F4502422E86A25222AAE8D
:1020A00056EF10F02E50245E2F50255A2FAE000C04
:1020B0002950245E2A50255A000C1D6A4BEC11F061
:1020C0001DB667EF10F01DA20ED01DB405D07F0E17
:1020D000256EFF0E246E1FD0800E256E246A1BD045
:1020E000256A246A18D01DB0FBD78F0E2660EDD765
:1020F0007E0E2664F5D78E0E265C05E0D89025323C
:102100002432262AF8D71DA406D0246C251EE86A9E
:10211000252225AEE5D712009EEC10F01DB6000C6E
:102120001DB0000C1DB4000C010C9EEC10F01DB68F
:10213000000C1DB0000C1DA4000C010C1D6A4BEC22
:1021400011F063EC11F01DB612001DAE08D01DA0F9
:1021500004D01DA802D01D8012001D9012002B502B
:10216000265C0BE12A50255C08E12950245C05E13E
:102170002850235C02E11D801200D8A002D01D8EE1
:1021800010D026502BC026F02B6E25502AC025F0EB
:102190002A6E245029C024F0296E235028C023F031
:1021A000286E2B50265C10E0FF0F09E01D901DB437
:1021B00003D01DAE1D8412001DAE1D9412002B2AEB
:1021C000D8902A32293228322850235E2950245AA6
:1021D0002A50255A25BEEAD7D890233624362536EC
:1021E000262EF8D7C8D77F0E266EFF0E256E246EDA
:1021F000236E12007F0E1DBEFF0E266E02D07F0ED4
:10220000266E800E256E246A236AF3D71DAE04D095
:10221000800E266E256AF7D7266A256AF4D71F50E6
:102220001E102F102E10F8E021BEF0D71FBE0CD0CC
:1022300020502110EBE0D8902E362F361E361F3658
:102240002006D8A02106F2D72150D4E12028D2E0E0
:102250002EAE11D07F0E2E1402E12FA00CD02F2A0B
:10226000E86A1E221F2207E3D8801F321E322F3257
:10227000202A2028BFE02050C9E02FC023F01EC034
:1022800024F01F34256E2030266E2532269E1DBE7A
:10229000268EF9EF10F02536263602E31D841D7ECA
:1022A00006E11D80266A256A246A236A1200262810
:1022B00003E0D88025321200D890253202E11D8239
:1022C00012001D8612002A362B3602E31D8C1D7E5D
:1022D00006E11D882B6A2A6A296A286A12002B28BF
:1022E00003E0D8802A321200D8902A32EAE11D8A0F
:0222F0001200DA
:0E22F200E66A010EE66EA6EC16F0E552E55225
:102300007D0EE66EE66AE66EE66A2CEC16F0E552A5
:10231000E552E552E5521200010EE66EE66AA6ECC1
:1023200016F0E552E5527D0EE66EE66AE66EE66A66
:102330002CEC16F0E552E552E552E5521200010E82
:10234000E66EE66EA6EC16F0E552E5527D0EE66E00
:10235000E66AE66EE66A2CEC16F0E552E552E552C6
:10236000E55212007D0EE66EE66AE66EE66A2CEC39
:1023700016F0E552E552E552E552E66AE66AA6EC49
:1023800016F0E552E5521200000EE66EE66AE66EC1
:10239000E66A2CEC16F0E552E552E552E552010EE4
:1023A000E66EE66EA6EC16F0E552E5521200D9CFC5
:1023B000E6FFE1CFD9FF100EE126080EDB6A090E19
:1023C000DB6A0A0EDB6A3F0EF36E0B0EF3CFDBFF08
:1023D000010EE66EE66A3DEC00F0E552E55222C0E1
:1023E000DEFF23C0DEFF24C0DEFF25C0DDFFDD529F
:1023F000DD52020EE66EE66A3DEC00F0E552E55273
:10240000040E22C0DBFF050E23C0DBFF060E24C036
:10241000DBFF070E25C0DBFFD9CFE9FFDACFEAFFEC
:10242000EECF00F0EECF01F0EECF02F0EFCF03F0F1
:10243000040EDBCF04F0050EDBCF05F0060EDBCF7C
:1024400006F0070EDBCF07F004C028F005C029F026
:1024500006C02AF007C02BF000C023F001C024F012
:1024600002C025F003C026F099EC0EF00C0E23C03C
:10247000DBFF0D0E24C0DBFF0E0E25C0DBFF0F0EB1
:1024800026C0DBFF0101010E1B6F196B1A6BF28A6C
:102490000C0EDBCF04F00D0EDBCF05F00E0EDBCF04
:1024A00006F00F0EDBCF07F0286A296A2A6A2B6A2A
:1024B00004C023F005C024F006C025F007C026F0B4
:1024C00095EC10F0010A25E10C0EDBCF08F00D0EA3
:1024D000DBCF09F00E0EDBCF0AF00F0EDBCF0BF0D7
:1024E000286A296A800E2A6EBF0E2B6E08C023F060
:1024F00009C024F00AC025F00BC026F083EC0FF0D1
:1025000023C000F024C001F025C002F026C003F073
:102510000CD00C0EDBCF00F00D0EDBCF01F00E0E59
:10252000DBCF02F00F0EDBCF03F0080EDBCF0CF099
:10253000090EDBCF0DF00A0EDBCF0EF00B0EDBCF5A
:102540000FF00CC028F00DC029F00EC02AF00FC00B
:102550002BF000C023F001C024F002C025F003C01E
:1025600026F08CEC10F0010A1EE0D9CFE9FFDACF9B
:10257000EAFFEECF10F0EECF11F0EECF12F0EFCF7A
:1025800013F0286A296A200E2A6E410E2B6E10C0A5
:1025900023F011C024F012C025F013C026F095ECF2
:1025A00010F0010A5FE00001DA055CE0A2DE010E36
:1025B000E66EE66A3DEC00F0E552E55222C0DEFF31
:1025C00023C0DEFF24C0DEFF25C0DDFFDD52DD526B
:1025D000020EE66EE66A3DEC00F0E552E552040EAE
:1025E00022C0DBFF050E23C0DBFF060E24C0DBFF8D
:1025F000070E25C0DBFFD9CFE9FFDACFEAFFEECF28
:1026000000F0EECF01F0EECF02F0EFCF03F0040EBA
:10261000DBCF04F0050EDBCF05F0060EDBCF06F0B6
:10262000070EDBCF07F004C028F005C029F006C074
:102630002AF007C02BF000C023F001C024F002C034
:1026400025F003C026F099EC0EF00C0E23C0DBFF42
:102650000D0E24C0DBFF0E0E25C0DBFF0F0E26C0C3
:10266000DBFF16D7F29A01011B6B000EE66EE66ADD
:10267000E66EE66A2CEC16F0E552E552E552E552BC
:10268000010EE66EE66EA6EC16F0E552E552100E6F
:10269000E15C02E2E16AE552E16EE552E7CFD9FF83
:1026A0001200D9CFE6FFE1CFD9FF050EE126040ED7
:1026B000DB6A010EE66EE66A3DEC00F0E552E5529B
:1026C00022C0DEFF23C0DEFF24C0DEFF25C0DDFF09
:1026D000DD52DD527D0EE66EE66AE66EE66A2CECB1
:1026E00016F0E552E552E552E552010EE66EE66E51
:1026F000A6EC16F0E552E552040EDB50030838E074
:102700000001DA0535E0010EE66EE66A3DEC00F008
:10271000E552E55222C0DEFF23C0DEFF24C0DEFF0B
:1027200025C0DDFFDD52DD52D9CFE9FFDACFEAFF68
:10273000EECF00F0EECF01F0EECF02F0EFCF03F0DE
:10274000286A296A300E2A6E410E2B6E00C023F0D3
:1027500001C024F002C025F003C026F095EC10F073
:10276000010A03E0040EDB2AC7D7040EDB6AC4D7D4
:102770000A0EE66E5FD8E552000EE66EE66AE66E79
:10278000E66A2CEC16F0E552E552E552E552010EF0
:10279000E66EE66EA6EC16F0E552E552050EE15C3B
:1027A00002E2E16AE552E16EE552E7CFD9FF12009D
:1027B00001011B6BF28AF2AA05D00001DA0502E0E2
:1027C000ABDDF9D7000EE66EE66AE66EE66A2CEC43
:1027D00016F0E552E552E552E552010EE66EE66E60
:1027E000A6EC16F0E552E5520101010E1B6F120036
:1027F000B9DD0A0EE66E1ED8E552C6DDD8DD51DF22
:10280000D8EF13F0F29401011B5104E0192B000ED4
:102810001A2312001907000E1A5B19511A1101E14F
:10282000F29A1200CD8ECD8ACD88850ECF6EED0E38
:10283000CE6E1200D9CFE6FFE1CFD9FFE652DF6AB4
:10284000CD80FE0EDB50DF5C0AE20001DA0507E016
:102850009EB002D0DA05FCE19E90DF2AF2D7CD903F
:0A286000E552E552E7CFD9FF120060
:06286A00D9CFE6FFE1CF2B
:10287000D9FF0A0EE126FD0EDBCFDEFFDBCFDDFF49
:10288000FB0EDBCF24F0FC0EDBCF25F0020E24C0C4
:10289000DBFF030E25C0DBFFDECF02F0DDCF03F050
:1028A0007D0E025E000E035A9A0E046E990E056E9E
:1028B000066E3E0E076E020EDBCF0CF0030EDBCF72
:1028C0000DF07D0E0C5E000E0D5A0CC024F00DC0F4
:1028D00025F086EC0EF023C008F024C009F025C0D6
:1028E0000AF026C00BF023C028F024C029F025C030
:1028F0002AF026C02BF004C023F005C024F006C047
:1029000025F007C026F083EC0FF05DEC10F00250CC
:102910002424006E03502520016E040E246E256AC7
:1029200000C029F001C02AF030EC10F0040E22C0E3
:10293000DBFF050E23C0DBFFDECF02F0DDCF03F0AF
:102940007D0E025E000E035A9A0E046E990E056EFD
:10295000066E3E0E076E020EDBCF0CF0030EDBCFD1
:102960000DF07D0E0C5E000E0D5A0CC024F00DC053
:1029700025F086EC0EF023C008F024C009F025C035
:102980000AF026C00BF023C028F024C029F025C08F
:102990002AF026C02BF004C023F005C024F006C0A6
:1029A00025F007C026F083EC0FF05DEC10F024500A
:1029B000025C006E25500358016E040E246E256AD9
:1029C00000C029F001C02AF030EC10F0060E22C041
:1029D000DBFF070E23C0DBFF060EDBCF24F0070E64
:1029E000DBCF25F086EC0EF023C002F024C003F00C
:1029F00025C004F026C005F0B80E286E1E0E296E04
:102A0000050E2A6E3E0E2B6E83EC0FF05DEC10F07F
:102A100024C000F025C001F0D950060FE96EDACFCE
:102A2000EAFF2450EE260150ED22040EDBCF00F029
:102A3000050EDBCF01F00001800E011406E1010E4E
:102A4000F36E080EF3CFDBFF0BD0080EDB6AD95014
:102A5000040FE96EDACFEAFFEE6CEF1E000EED22F6
:102A6000060EDBCF00F0070EDBCF01F0800E011465
:102A700006E1010EF36E090EF3CFDBFF0BD0090E5A
:102A8000DB6AD950060FE96EDACFEAFFEE6CEF1E73
:102A9000000EED22090EDBCFE6FF080EDBCFE6FFCE
:102AA00055D9E552E552060EDBCFE6FF070EDBCF28
:102AB000E6FF040EDBCFE6FF050EDBCFE6FFCCD84A
:102AC000E552E552E552E5520A0EE15C02E2E16AA6
:102AD000E552E16EE552E7CFD9FF1200D9CFE6FF0C
:102AE000E1CFD9FF0A0EE126FD0EDBCFDEFFDBCF03
:102AF000DDFFFB0EDBCF24F0FC0EDBCF25F0020E5A
:102B000024C0DBFF030E25C0DBFFDECF02F0DDCFEC
:102B100003F07D0E025E000E035A020EDBCF04F0BE
:102B2000030EDBCF05F07D0E045E000E055A025049
:102B30000424006E03500520016E040E246E256AE5
:102B400000C029F001C02AF030EC10F0040E22C0C1
:102B5000DBFF050E23C0DBFFDECF02F0DDCF03F08D
:102B60007D0E025E000E035A020EDBCF04F0030E50
:102B7000DBCF05F07D0E045E000E055A0450025CAA
:102B8000006E05500358016E040E246E256A00C0C5
:102B900029F001C02AF030EC10F0060E22C0DBFF55
:102BA000070E23C0DBFF040EDBCF00F0050EDBCFEA
:102BB00001F00001800E011406E1010EF36E080E13
:102BC000F3CFDBFF0BD0080EDB6AD950040FE96EA0
:102BD000DACFEAFFEE6CEF1E000EED22060EDBCF21
:102BE00000F0070EDBCF01F0800E011406E1010EAC
:102BF000F36E090EF3CFDBFF0BD0090EDB6AD95061
:102C0000060FE96EDACFEAFFEE6CEF1E000EED2242
:102C1000090EDBCFE6FF080EDBCFE6FF97D8E552C3
:102C2000E552060EDBCFE6FF070EDBCFE6FF040E14
:102C3000DBCFE6FF050EDBCFE6FF0ED8E552E5520F
:102C4000E552E5520A0EE15C02E2E16AE552E16E0C
:102C5000E552E7CFD9FF1200D9CFE6FFE1CFD9FF88
:102C6000060EE126FD0EDBCFDEFFDBCFDDFFFB0E28
:102C7000DBCF24F0FC0EDBCF25F0020E24C0DBFFFF
:102C8000030E25C0DBFF040EDB6A050EDB6ADECF18
:102C900000F0DDCF01F0030E0016000E0116040E49
:102CA00000C0DBFF050E01C0DBFF040EDBCF00F030
:102CB000050EDBCF01F0040ED89000360136E80493
:102CC000FBE10050BD12DECF00F0DDCF01F0D89067
:102CD00001320032D890013200320050BE6E030E35
:102CE000E76E020EDBCF00F0030EDBCF01F0E75002
:102CF0000016016A040E00C0DBFF050E01C0DBFFF9
:102D0000040EDBCF00F0050EDBCF01F0040ED890EF
:102D100000360136E804FBE10050BA12020EDBCFA8
:102D200000F0030EDBCF01F0D89001320032D890D2
:102D3000013200320050BB6E060EE15C02E2E16A35
:102D4000E552E16EE552E7CFD9FF1200D9CFE6FF99
:102D5000E1CFD9FFFE0EDB5003E18392838405D0DF
:102D6000FE0EDB0402E183828394FD0EDB5003E15F
:102D70008398838A05D0FD0EDB0402E18388839A61
:102D8000E552E7CFD9FF120083808386120083903B
:102D900083961200D9CFE6FFE1CFD9FFFD0EDB50BD
:102DA000CB6E95909592959495969598959A9396C5
:102DB0009494CA84CA92CA80BD86BD84BA86BA84F5
:082DC000E552E7CFD9FF120034
:082DC800D9CFE6FFE1CFD9FFEE
:102DD000120EE1260A0EF36E100EF3CFDBFF110E7A
:102DE000DB6A020EE66EE66AB5EC02F0E552E552E9
:102DF000060E22C0DBFF070E23C0DBFF080E24C037
:102E0000DBFF090E25C0DBFF010EE66EE66AB5ECBE
:102E100002F0E552E5520A0E22C0DBFF0B0E23C082
:102E2000DBFF0C0E24C0DBFF0D0E25C0DBFF100EF8
:102E3000DBCF24F0110EDBCF25F086EC0EF023C0A3
:102E400000F024C001F025C002F026C003F0060EF9
:102E5000DBCF04F0070EDBCF05F0080EDBCF06F06A
:102E6000090EDBCF07F004C028F005C029F006C02A
:102E70002AF007C02BF099EC0EF05DEC10F00E0E6E
:102E800024C0DBFF0F0E25C0DBFF0A0EDBCF04F0F2
:102E90000B0EDBCF05F00C0EDBCF06F00D0EDBCFFB
:102EA00007F0060EDBCF08F0070EDBCF09F0080EA7
:102EB000DBCF0AF0090EDBCF0BF008C028F009C009
:102EC00029F00AC02AF00BC02BF004C023F005C083
:102ED00024F006C025F007C026F099EC0EF023C0C0
:102EE00000F024C001F025C002F026C003F023C08A
:102EF000E6FF24C0E6FF25C0E6FF26C0E6FF79EC2A
:102F00000AF0E552E552E552E552F3CFDEFFF4CF89
:102F1000DDFF0E0EDBCFE6FF0F0EDBCFE6FF52EC40
:102F20000CF0E552E552020EF3CFDBFF030EF4CFB7
:102F3000DBFF020EDBCF02F0030EDBCF03F0DE502F
:102F40000224006EDD500320016E020E296E2A6AF3
:102F500000C024F001C025F00AEC10F024C000F0FD
:102F600025C001F0040E24C0DBFF050E25C0DBFFE9
:102F7000040EDBCF00F0050EDBCF01F000C0F3FF45
:102F800001C0F4FF120EE15C02E2E16AE552E16E7B
:102F9000E552E7CFD9FF1200D9CFE6FFE1CFD9FF45
:102FA000040EE126000EE66EE66AB5EC02F0E5528C
:102FB000E55222C0DEFF23C0DEFF24C0DEFF25C0B5
:102FC000DDFFDD52DD52D9CFE9FFDACFEAFFEECFE8
:102FD00000F0EECF01F0EECF02F0EFCF03F0286A61
:102FE000296A200E2A6E410E2B6E00C023F001C00C
:102FF00024F002C025F003C026F095EC10F0010A81
:1030000002E1010E01D0000E006E040EE15C02E24E
:10301000E16AE552E16E0050E552E7CFD9FF1200B8
:10302000D9CFE6FFE1CFD9FF030EE12630EC0EF059
:10303000020EDB501AE1B0DF000904E07D0EE66EFF
:10304000E66A0AD0C1DEF3CFDEFFF4CFDDFFDECFCC
:10305000E6FFDDCFE6FF960EE66EE66A35EC14F08D
:10306000E552E552E552E552E3D7030EE15C02E298
:0E307000E16AE552E16EE552E7CFD9FF1200AA
:02307E00D9CFA8
:10308000E6FFE1CFD9FF020EE1265AEC05F01EEC77
:1030900005F030EC0EF028EC00F012EC14F0FF0E0E
:1030A000E66EE66ACAEC16F0E552E552C4EC16F09C
:1030B000000EE66EE66AE66EE66A2CEC16F0E55265
:1030C000E552E552E552010EE66EE66EA6EC16F00C
:1030D000E552E55282EC05F00101175128E19DBA55
:1030E000FED7010116513BE0E66ABAEC05F0E55265
:1030F000C4EC08F001011651EFE09D8A010E186F33
:10310000D59CD584D592D590F8EC13F00101166BBF
:10311000186BD58CD582D582D580F28A0001DA056C
:10312000DBE0010EE66EBAEC05F0E552D5D7F29A77
:103130009DAA14D0E4EC16F0F3CFDEFFF4CFDDFF50
:10314000DECFE6FFDDCFE6FF960EE66EE66A35ECF3
:1031500014F0E552E552E552E552EAD7F28A01EC65
:1031600008F00101176FB8D7DACFE4FFE2CFDAFF3A
:10317000E9CFE4FFEACFE4FFF6CFE4FFF7CFE4FFC7
:10318000F5CFE4FFF3CFE4FFF4CFE4FFFACFE4FFA1
:1031900000EE1CF0140EE80403E3EECFE4FFFBD7CF
:1031A00000EE00F01C0EE80403E3EECFE4FFFBD7D3
:1031B000E6529D50200B05E09E50200B02E0D3EC20
:1031C00005F0E55200EE1BF01C0EE80403E3E5CF2A
:1031D000EDFFFBD700EE2FF0140EE80403E3E5CF7C
:1031E000EDFFFBD7E5CFFAFFE5CFF4FFE5CFF3FF27
:1031F000E5CFF5FFE5CFF7FFE5CFF6FFE5CFEAFF37
:10320000E5CFE9FFE5CFDAFF1100DACFE4FFE2CF47
:10321000DAFFE9CFE4FFEACFE4FFF6CFE4FFF7CF30
:10322000E4FFF5CFE4FFF3CFE4FFF4CFE4FFFACF00
:10323000E4FF00EE1CF0140EE80403E3EECFE4FF1D
:10324000FBD700EE00F01C0EE80403E3EECFE4FF32
:10325000FBD7E652F2A40AD00101185105E121EC96
:1032600005F00101166F02D002EC14F0E55200EEF9
:103270001BF01C0EE80403E3E5CFEDFFFBD700EEE7
:103280002FF0140EE80403E3E5CFEDFFFBD7E5CF05
:10329000FAFFE5CFF4FFE5CFF3FFE5CFF5FFE5CF8C
:1032A000F7FFE5CFF6FFE5CFEAFFE5CFE9FFE5CF92
:0432B000DAFF110030
:0C32B4001E0EF66E000EF76E000EF86E97
:1032C00001010900F550116F0900F550126F03E17B
:1032D000116701D03DD00900F5500C6F0900F55081
:1032E0000D6F0900F5500E6F09000900F550E96EE9
:1032F0000900F550EA6E090009000900F5500F6F4A
:103300000900F550106F09000900F6CF13F1F7CF4F
:1033100014F1F8CF15F10CC1F6FF0DC1F7FF0EC186
:10332000F8FF01010F5302E1105307E00900F550C7
:10333000EE6E0F07F8E21007F9D713C1F6FF14C1BC
:10334000F7FF15C1F8FF01011107000E125BBFD78F
:02335000120069
:0E335200216A206A100EE76ED89024362536C8
:10336000203621362950205C2A50215805E3295067
:0E337000205E2A50215A242AE72EF0D71200A0
:02337E00000E3F
:10338000F36E00EE00F0060E01D81200EA6002D0E3
:0E339000EE6AFCD7F350E9601200EE6AFCD73B
:02339E0015EE2A
:1033A00000F025EE00F0F86A1D9C5AEC19F003ECD1
:0A33B00000F03FEC18F0FBD712000C
:0633BA00216A080EE76E17
:1033C000D890253621362A50215C02E3216E252A29
:0633D000E72EF7D7120002
:0333D600000000F4
:0733D900000014AE4B410A95
:0833E000D7A3BC05000A0000A0
:020000040030CA
:0100010022DC
:0100020004F9
:010003000EEE
:0100050000FA
:010006008079
:010008000FE8
:01000900C036
:01000A000FE6
:01000B00E014
:01000C000FE4
:01000D0040B2
:00000001FF
